{
  "contractName": "Shipping",
  "abi": [
    {
      "inputs": [],
      "payable": false,
      "stateMutability": "nonpayable",
      "type": "constructor"
    },
    {
      "constant": true,
      "inputs": [],
      "name": "orderStatus",
      "outputs": [
        {
          "internalType": "enum Shipping.Status",
          "name": "",
          "type": "uint8"
        }
      ],
      "payable": false,
      "stateMutability": "view",
      "type": "function"
    },
    {
      "constant": true,
      "inputs": [],
      "name": "owner",
      "outputs": [
        {
          "internalType": "address payable",
          "name": "",
          "type": "address"
        }
      ],
      "payable": false,
      "stateMutability": "view",
      "type": "function"
    },
    {
      "constant": false,
      "inputs": [],
      "name": "isShipped",
      "outputs": [],
      "payable": false,
      "stateMutability": "nonpayable",
      "type": "function"
    },
    {
      "constant": false,
      "inputs": [],
      "name": "isDelivered",
      "outputs": [],
      "payable": false,
      "stateMutability": "nonpayable",
      "type": "function"
    }
  ],
  "bytecode": "0x608060405273c71fdbde4938d7605528fd998a7a5f5420eabb6a600160006101000a81548173ffffffffffffffffffffffffffffffffffffffff021916908373ffffffffffffffffffffffffffffffffffffffff16021790555034801561006557600080fd5b50336000806101000a81548173ffffffffffffffffffffffffffffffffffffffff021916908373ffffffffffffffffffffffffffffffffffffffff1602179055506000600160146101000a81548160ff021916908360028111156100c557fe5b0217905550610193806100d96000396000f3fe608060405234801561001057600080fd5b506004361061004c5760003560e01c80632728e28b14610051578063765f744c1461007d5780638da5cb5b14610087578063f291ae08146100d1575b600080fd5b6100596100db565b6040518082600281111561006957fe5b60ff16815260200191505060405180910390f35b6100856100ee565b005b61008f610114565b604051808273ffffffffffffffffffffffffffffffffffffffff1673ffffffffffffffffffffffffffffffffffffffff16815260200191505060405180910390f35b6100d9610139565b005b600160149054906101000a900460ff1681565b6002600160146101000a81548160ff0219169083600281111561010d57fe5b0217905550565b6000809054906101000a900473ffffffffffffffffffffffffffffffffffffffff1681565b60018060146101000a81548160ff0219169083600281111561015757fe5b021790555056fea265627a7a7231582070773e482b7a66c4301bd49b519b7b6e2e5c1888c68c016f13cd38bd32b3865b64736f6c63430005100032",
  "source": "// SPDX-License-Identifier: MIT\npragma solidity >=0.4.21 <0.7.0;\n\ncontract Shipping {\n    enum Status {Pending, Shipped, Delivered}\n    address payable public owner;\n    address payable internal deliverer = 0xc71fDbDE4938D7605528FD998a7a5F5420eAbB6A;\n\n    Status public orderStatus;\n\n    constructor() public {\n        owner = msg.sender;\n        orderStatus = Status.Pending;\n    }\n\n    function isShipped() public {\n        orderStatus = Status.Shipped;\n    }\n    function isDelivered() public {\n        orderStatus = Status.Delivered;\n    }\n}\n",
  "sourcePath": "/Users/jean-baptistelindner/Desktop/Projets/dapp-iim/contracts/Shipping.sol",
  "compiler": {
    "name": "solc",
    "version": "0.5.16+commit.9c3226ce.Emscripten.clang"
  },
  "schemaVersion": "3.3.4",
  "updatedAt": "2021-04-22T15:58:46.773Z",
  "networkType": "ethereum",
  "devdoc": {
    "methods": {}
  },
  "userdoc": {
    "methods": {}
  }
}